:020000040800F2
:1000000000000220A157000839590008495900088A
:1000100051590008595900086159000800000000B2
:100020000000000000000000000000006959000806
:100030007959000800000000895900089959000802
:10004000F1570008F1570008F1570008F157000870
:10005000F1570008F1570008A9590008F1570008A6
:10006000F1570008F1570008F1570008F157000850
:10007000F1570008F1570008F1570008F157000840
:10008000F1570008F1570008F1570008F157000830
:10009000F1570008F1570008F1570008F157000820
:1000A000F1570008F1570008F1570008F157000810
:1000B000F1570008F1570008F1570008F157000800
:1000C000F1570008F1570008F1570008F1570008F0
:1000D000F1570008F1570008F1570008F1570008E0
:1000E000F1570008F1570008F1570008F1570008D0
:1000F000F1570008F1570008F1570008F1570008C0
:10010000F1570008F1570008F1570008F1570008AF
:10011000F1570008F1570008F1570008F15700089F
:10012000F1570008F1570008F1570008F15700088F
:10013000F1570008F1570008F1570008F15700087F
:10014000F1570008F1570008F1570008B9590008A5
:10015000F1570008F1570008F1570008F15700085F
:10016000F1570008F1570008F1570008F15700084F
:10017000F1570008F1570008F1570008000000008F
:08018000F1570008F1570008D7
:1001900010B5054C237833B9044B13B10448AFF3C1
:1001A00000800123237010BD4009002000000000E2
:1001B0008C630208084B10B51BB108490848AFF31F
:1001C00000800848036803B910BD074B002BFBD023
:1001D000BDE81040184700BF00000000440900209F
:1001E0008C630208400900200000000053B94AB99E
:1001F000002908BF00281CBF4FF0FF314FF0FF302F
:1002000000F07EB9ADF1080C6DE904CE00F006F8FF
:10021000DDF804E0DDE9022304B070472DE9F04782
:100220008C460E460446089D002B50D18A42174644
:100230006CD9B2FA82FEBEF1000F0BD0CEF12004D1
:1002400020FA04F401FA0EF644EA060C02FA0EF75C
:1002500000FA0EF44FEA1749220CBCFBF9F01FFA22
:1002600087F809FB10C642EA064600FB08F3B342D2
:1002700009D9F61900F1FF3280F02281B34240F231
:100280001F8102383E44F61AA2B2B6FBF9F309FB0D
:10029000136642EA064403FB08F8A04509D9E419AD
:1002A00003F1FF3280F00A81A04540F20781023B52
:1002B0003C44C8EB040443EA00400021002D62D016
:1002C00024FA0EF400232C606B60BDE8F0878B42AB
:1002D00007D9002D55D0002185E841000846BDE82A
:1002E000F087B3FA83F1002940F09080B34202D343
:1002F000824200F2F880841A66EB03060120B446BD
:10030000002D40D085E81010BDE8F08712B9012714
:10031000B7FBF2F7B7FA87FEBEF1000F35D1F31B3A
:100320004FEA17481FFA87FC0121B3FBF8F0220CB3
:1003300008FB103642EA06460CFB00F3B34207D92D
:10034000F61900F1FF3202D2B34200F2CE8010461D
:10035000F61AA2B2B6FBF8F308FB136642EA0644AB
:100360000CFB03FCA44507D9E41903F1FF3202D2C8
:10037000A44500F2B5801346CCEB040443EA0040E8
:100380009CE729462846BDE8F087CEF1200106FA11
:100390000EF307FA0EF720FA01F94FEA1748CE409C
:1003A00049EA0309B6FBF8FA4FEA194408FB1A6652
:1003B0001FFA87FC44EA06430AFB0CF29A4200FA51
:1003C0000EF40AD9DB190AF1FF3180F087809A42D6
:1003D00040F28480AAF1020A3B449B1A1FFA89F971
:1003E000B3FBF8F108FB113349EA034301FB0CF6B8
:1003F0009E4207D9DB1901F1FF326BD29E4269D9C7
:1004000002393B449B1B41EA0A418EE7C1F1200EB1
:1004100022FA0EF48B40234320FA0EF706FA01F479
:100420004FEA134C26FA0EF63C43B6FBFCF9270CB8
:100430000CFB19661FFA83F847EA064609FB08F722
:10044000B74202FA01F200FA01FA08D9F61809F1E6
:10045000FF3041D2B7423FD9A9F102091E44F61B31
:10046000A0B2B6FBFCF40CFB146640EA064704FBA2
:1004700008F8B84507D9FF1804F1FF3028D2B8456D
:1004800026D9023C1F4444EA0940C8EB0707A0FBF9
:1004900002894F4544464E4614D329D065B3BAEB82
:1004A000040367EB060707FA0EFECB40CF404EEA87
:1004B000030385E888000021BDE8F0871346F8E6CD
:1004C0001046E0E6B8EB020469EB03060138E5E705
:1004D0000446D8E7114695E78146C0E78A467CE79F
:1004E000023B3C4448E708460AE702383E442FE70F
:1004F000C245E7D33E46D1E72946BDE8F08700BFB5
:10050000704700BF00000000000000000000000075
:1005100001F0FF01102A2BDB10F0070F08D010F8B4
:10052000013B013A8B422DD010F0070F42B3F6D1B8
:10053000F0B441EA012141EA014122F007047FF0D1
:1005400000070023F0E80256083C85EA010586EA28
:10055000010685FA47F5A3FA87F586FA47F6A5FA64
:1005600087F68EB9EED1F0BC01F0FF0102F0070270
:1005700032B110F8013B013A83EA010313B1F8D11B
:100580000020704701387047002D06BF35460338FC
:10059000073815F0010F07D1013015F4807F02BF35
:1005A000013015F4C03F0130F0BC0138704700BF86
:1005B00070B50F4E0F4D761BB61018BF002405D036
:1005C000013455F8043B9847A642F9D10A4E0B4D29
:1005D000761B25F0DBFEB61018BF002406D00134D0
:1005E00055F8043B9847A642F9D170BD70BD00BFD5
:1005F00084BB020884BB02088CBB020884BB0208CF
:10060000024B13B1024800F005B87047000000002B
:1006100021060008002301461A46184600F014B8C7
:1006200038B5074D074C2C1BA41005D0013C55F8DC
:10063000043D9847002CF9D1BDE8384025F0ACBE08
:1006400090BB02088CBB02082DE9F047254C2568B9
:10065000D5F848410646884692469946C4B3606834
:100660001F2817DC431C76B104EB80050122C5F876
:1006700088A0D4F8881182401143022EC4F8881152
:10068000C5F808911ED00230636044F82080002035
:10069000BDE8F087144B03B34FF4C87025F036FA69
:1006A0000446D0B1D5F84831002780E88800C5F865
:1006B000484138460123C4F88871C4F88C71002E73
:1006C000E1D0D1E7D4F88C110A43C4F88C21DAE7E1
:1006D00005F5A674C5F84841C1E74FF0FF30BDE805
:1006E000F08700BF446402080D5B020880B500AFCC
:1006F0000E4A0E4B1B6843F4007313600B4A0B4BFE
:100700001B6843F480631360084A084B1B6843F47A
:1007100080731360032000F047F9002000F008F810
:1007200005F068F80023184680BD00BF003C024079
:1007300080B582B000AF7860124B1A68124B1B78FC
:1007400019464FF47A73B3FBF1F3B2FBF3F3184697
:1007500000F060F90346002B01D001230EE07B6816
:100760000F2B0AD8002279684FF0FF3000F028F9EB
:10077000064A7B681360002300E00123184608370F
:10078000BD4680BD44050020300400202C0400201C
:1007900080B400AF064B1B781A46064B1B68134407
:1007A000044A136000BFBD465DF8047B704700BF7C
:1007B000300400200096002080B400AF034B1B687B
:1007C0001846BD465DF8047B704700BF00960020C8
:1007D00080B584B000AF7860FFF7EEFFB8607B684B
:1007E000FB60FB68B3F1FF3F05D0094B1B781A464D
:1007F000FB681344FB6000BFFFF7DEFF0246BB68E7
:10080000D21AFB689A42F7D300BF1037BD4680BDAD
:100810003004002080B485B000AF78607B6803F0BE
:100820000703FB600C4BDB68BB60BA684FF6FF0345
:100830001340BB60FB681A02BB68134343F0BF63FD
:1008400043F40033BB60044ABB68D36000BF143775
:10085000BD465DF8047B704700ED00E080B400AF5A
:10086000044BDB6803F4E0631B0A1846BD465DF8E1
:10087000047B704700ED00E080B483B000AF034616
:10088000FB71094997F907305B09FA7902F01F02F9
:10089000012000FA02F241F8232000BF0C37BD46C8
:1008A0005DF8047B704700BF00E100E080B483B0D6
:1008B00000AF03463960FB7197F90730002B0BDA64
:1008C0000D49FB7903F00F03043B3A68D2B21201E1
:1008D000D2B20B441A7609E0084997F907303A6812
:1008E000D2B21201D2B20B4483F8002300BF0C37FE
:1008F000BD465DF8047B704700ED00E000E100E0DC
:1009000080B489B000AFF860B9607A60FB6803F02A
:100910000703FB61FB69C3F10703042B28BF042312
:10092000BB61FB690433062B02D9FB69033B00E082
:1009300000237B610122BB6902FA03F35A1EBB68E4
:100940001A407B699A4001217B6901FA03F3591E21
:100950007B680B40134318462437BD465DF8047B83
:10096000704700BF80B582B000AF78607B68013B04
:10097000B3F1807F01D301230FE00A4A7B68013B7A
:1009800053600F214FF0FF30FFF790FF054B00221F
:100990009A60044B07221A60002318460837BD46A8
:1009A00080BD00BF10E000E080B582B000AF78608D
:1009B0007868FFF72FFF00BF0837BD4680BD00BF36
:1009C00080B586B000AF0346B9607A60FB73002340
:1009D0007B61FFF743FF78617A68B9687869FFF750
:1009E0008FFF024697F90F3011461846FFF75EFF5A
:1009F00000BF1837BD4680BD80B582B000AF03464A
:100A0000FB7197F907301846FFF736FF00BF08372C
:100A1000BD4680BD80B582B000AF78607868FFF7D2
:100A2000A1FF034618460837BD4680BD80B483B099
:100A300000AF78607B68042B06D1094A084B1B681D
:100A400043F00403136005E0054A054B1B6823F0DF
:100A50000403136000BF0C37BD465DF8047B70478C
:100A600010E000E080B500AF00F002F800BF80BDEC
:100A700080B400AF00BFBD465DF8047B704700BF87
:100A800080B489B000AF7860396000237B610023B7
:100A90003B610023BB610023FB616BE10122FB6929
:100AA00002FA03F37B613B681A687B6913403B6180
:100AB0003A697B699A4240F05A813B685B68022B35
:100AC00003D03B685B68122B23D1FB69DA087B6893
:100AD000083253F82230BB61FB6903F007039B0027
:100AE0000F2202FA03F3DB43BA691340BB613B6890
:100AF0001A69FB6903F007039B0002FA03F3BA6962
:100B00001343BB61FB69DA087B680832B96943F8B3
:100B100022107B681B68BB61FB695B00032202FA41
:100B200003F3DB43BA691340BB613B685B6803F0C6
:100B30000302FB695B0002FA03F3BA691343BB616A
:100B40007B68BA691A603B685B68012B0BD03B6815
:100B50005B68022B07D03B685B68112B03D03B68B6
:100B60005B68122B30D17B689B68BB61FB695B00C3
:100B7000032202FA03F3DB43BA691340BB613B680B
:100B8000DA68FB695B0002FA03F3BA691343BB61DD
:100B90007B68BA699A607B685B68BB610122FB690C
:100BA00002FA03F3DB43BA691340BB613B685B683D
:100BB0001B0903F00102FB6902FA03F3BA6913434C
:100BC000BB617B68BA695A607B68DB68BB61FB69A3
:100BD0005B00032202FA03F3DB43BA691340BB61F3
:100BE0003B689A68FB695B0002FA03F3BA69134336
:100BF000BB617B68BA69DA603B685B6803F080536D
:100C0000002B00F0B4800023FB605F4A5E4B5B6CFE
:100C100043F4804353645C4B5B6C03F48043FB60A0
:100C2000FB685A4AFB699B08023352F82330BB61C8
:100C3000FB6903F003039B000F2202FA03F3DB437B
:100C4000BA691340BB617B68514A93422BD07B68E1
:100C5000504A934225D07B684F4A93421FD07B680D
:100C60004E4A934219D07B684D4A934213D07B6819
:100C70004C4A93420DD07B684B4A934207D07B6825
:100C80004A4A934201D107230EE008230CE00623D1
:100C90000AE0052308E0042306E0032304E002231E
:100CA00002E0012300E00023FA6902F0030292004F
:100CB0009340BA691343BB613449FB699B08023313
:100CC000BA6941F823203A4B1B68BB613B69DB439F
:100CD000BA691340BB613B685B6803F48033002B47
:100CE00003D0BA693B691343BB61314ABB691360E6
:100CF0002F4B5B68BB613B69DB43BA691340BB6147
:100D00003B685B6803F40033002B03D0BA693B698E
:100D10001343BB61264ABB695360254B9B68BB618B
:100D20003B69DB43BA691340BB613B685B6803F412
:100D30008013002B03D0BA693B691343BB611C4A83
:100D4000BB6993601A4BDB68BB613B69DB43BA69E3
:100D50001340BB613B685B6803F40013002B03D0B6
:100D6000BA693B691343BB61114ABB69D360FB6934
:100D70000133FB61FB690F2B7FF690AE00BF243778
:100D8000BD465DF8047B70470038024000380140E2
:100D9000000002400004024000080240000C024033
:100DA000001002400014024000180240001C0240E3
:100DB000003C014080B485B000AF78600B467B807A
:100DC0007B681A697B881340002B02D00123FB73D8
:100DD00001E00023FB73FB7B18461437BD465DF82A
:100DE000047B704780B483B000AF78600B467B8093
:100DF00013467B707B78002B03D07A887B689A61DE
:100E000003E07B881A047B689A6100BF0C37BD46FB
:100E10005DF8047B704700BF80B582B000AF034629
:100E2000FB80084B5A69FB881340002B06D0054A0B
:100E3000FB885361FB88184604F0D0F900BF0837DF
:100E4000BD4680BD003C0140F0B58FB00AAF786070
:100E50000023FB607B68002B01D10123F7E07B6856
:100E6000032283F8B923786804F0D0FE7B681B68FE
:100E7000184601F017FE7B681B683B607E686D4674
:100E800006F110040FCC0FC50FCC0FC594E803007A
:100E900085E80300331D0ECB386801F09FFD7B68A9
:100EA0001B680021184601F00FFE0023FB604CE098
:100EB0007968FA681346DB009B1A9B000B443933B0
:100EC00001221A70FB68D8B27968FA681346DB0011
:100ED0009B1A9B000B44383302461A70FB6898B289
:100EE0007968FA681346DB009B1A9B000B443E337B
:100EF00002461A807968FA681346DB009B1A9B0049
:100F00000B443B3300221A707968FA681346DB0001
:100F10009B1A9B000B44403300221A607968FA68E0
:100F20001346DB009B1A9B000B44443300221A60DB
:100F30007968FA681346DB009B1A9B000B444C331C
:100F400000221A60FB680133FB60FB680E2BAFD9EF
:100F50000023FB605AE07968FA681346DB009B1AAD
:100F60009B000B4403F2F91300221A70FB68D8B2FD
:100F70007968FA681346DB009B1A9B000B4403F563
:100F8000FC7302461A70FB6898B27968FA681346D7
:100F9000DB009B1A9B000B443E3302461A807968A3
:100FA000FA681346DB009B1A9B000B4403F2FB1309
:100FB00000221A707968FA681346DB009B1A9B00BE
:100FC0000B4403F5007300221A607968FA6813462F
:100FD000DB009B1A9B000B4403F5017300221A608F
:100FE0007968FA681346DB009B1A9B000B4403F5F3
:100FF000037300221A607B681A68FB6840339B0009
:10100000134400225A60FB680133FB60FB680E2B1F
:10101000A1D97B681B683B607E686D4606F11004B1
:101020000FCC0FC50FCC0FC594E8030085E8030073
:10103000331D0ECB386801F06FFD7B68012283F809
:10104000B9237B681B68184602F090FD0023184600
:101050001437BD46F0BD00BF80B582B000AF7860E8
:101060007B6893F8B833012B01D1022312E07B682F
:10107000012283F8B8237B681B68184602F05EFDE6
:101080007B681B68184601F0FBFC7B68002283F834
:10109000B823002318460837BD4680BD80B58CB004
:1010A00000AF78607B681B683B620023FB62002313
:1010B000BB620023FB6100237B620023BB61002332
:1010C0007B617B4B3B617B681B68184602F0F2FD3D
:1010D0000346002B40F05D847B681B68184602F0D5
:1010E0005DFD0346002B00F053847B681B681846A7
:1010F00002F054FD034603F00203002B07D07B6887
:101100001B687A681268526902F002025A617B68B1
:101110001B68184602F042FD034603F40023002B2F
:1011200000F0B28000237B627B681B68184602F0E7
:101130004BFDB862A4E0BB6A03F00103002B00F092
:1011400099807B681B687A6AD2B21146184602F011
:101150006BFDF861FB6903F00103002B6BD07B6A28
:101160005A013B6A134403F530631A460123936026
:101170007B681B69012B3CD179687A6A1346DB00D6
:101180009B1A9B000B4403F500731A687B6A590194
:101190003B6A0B4403F530631B69C3F31203D11A96
:1011A00078687A6A1346DB009B1A9B00034403F5B8
:1011B0000473196079687A6A1346DB009B1A9B00F6
:1011C0000B4403F50173196878687A6A1346DB00EB
:1011D0009B1A9B00034403F500731B68194478684D
:1011E0007A6A1346DB009B1A9B00034403F50173E4
:1011F00019607B6ADBB21946786804F057FD7B689A
:101200001B69012B17D17B6A002B14D179687A6A8C
:101210001346DB009B1A9B000B4403F503731B680A
:10122000002B08D17B6818687B6803F56F731A463A
:10123000012102F083FDFB6903F00803002B0BD0B2
:10124000786804F021FD7B6A5A013B6A134403F578
:1012500030631A4608239360FB6903F01003002BE8
:1012600008D07B6A5A013B6A134403F530631A467F
:10127000102393607B6A01337B62BB6A5B08BB62AD
:10128000BB6A002B7FF457AF7B681B68184602F0DF
:1012900085FC034603F48023002B00F0C5807B68A7
:1012A0001B68184602F0A8FCB86200237B62B7E016
:1012B0000095BA0ABB6A03F00103002B00F0AA8074
:1012C0007B681B687A6AD2B21146184602F0C8FCE5
:1012D000F861FB6903F00103002B5AD001227B6AFD
:1012E00002FA03F3BB613B6A03F5006319463B6AEC
:1012F00003F500635A6BBB69DB4313404B637B6AA6
:101300005A013B6A134403F510631A4601239360A4
:101310007B681B69012B1BD179687A6A1346DB0055
:101320009B1A9B000B444433196878687A6A134609
:10133000DB009B1A9B00034440331B681944786808
:101340007A6A1346DB009B1A9B00034444331960FE
:101350007B6ADBB21946786804F0C4FC7B681B69C1
:10136000012B16D17B6A002B13D179687A6A134658
:10137000DB009B1A9B000B444C331B68002B08D1ED
:101380007B6818687B6803F56F731A46012102F0C9
:10139000D5FCFB6903F00803002B08D07B6A5A01D7
:1013A0003B6A134403F510631A4608239360FB69F4
:1013B00003F01003002B08D07B6A5A013B6A1344E8
:1013C00003F510631A4610239360FB6903F0400392
:1013D000002B08D07B6A5A013B6A134403F5106363
:1013E0001A4640239360FB6903F00203002B08D0E8
:1013F0007B6A5A013B6A134403F510631A460223C1
:101400009360FB6903F08003002B03D0796A78684E
:1014100000F0ECFC7B6A01337B62BB6A5B08BB6259
:10142000BB6A002B7FF446AF7B681B68184602F04E
:10143000B5FB0346002B15DA3B6A03F500631A4639
:101440003B6A03F500635B6823F00103536078682F
:1014500004F0C0FC7B681B687A681268526902F06D
:1014600000425A617B681B68184602F097FB0346EE
:1014700003F40063002B12D03B6A03F500639B6802
:1014800003F00103002B02D0786804F07BFC7B683A
:101490001B687A681268526902F400625A617B68BC
:1014A0001B68184602F07AFB034603F48053002BB6
:1014B00000F091803B6A03F500631A463B6A03F52E
:1014C00000635B6823F0010353607B681B68102195
:1014D000184601F04DFC0023FB6214E0FB6A5A0140
:1014E0003B6A134403F510631A46FF239360FB6ABB
:1014F0005A013B6A134403F530631A46FF23936095
:10150000FB6A0133FB627B685A68FB6A9A42E5D842
:101510003B6A03F500631A464FF0FF3393613B6A61
:1015200003F500631A463B6A03F50063DB6943F089
:101530000113D3617B681B6B002B18D03B6A03F54A
:1015400000631A463B6A03F50063D3F8843043F026
:101550000B03C2F884303B6A03F500631A463B6A0A
:1015600003F500635B6C43F00B03536415E03B6AC7
:1015700003F500631A463B6A03F500635B6943F0B9
:101580000B0353613B6A03F500631A463B6A03F59C
:1015900000631B6943F00B0313613B6A03F50063AF
:1015A0001A463B6A03F500631B6823F4FE6313606D
:1015B0007B6818687B681B69D9B27B6803F56F7319
:1015C0001A4602F0BBFB7B681B687A681268526996
:1015D00002F480525A617B681B68184602F0DEFAFA
:1015E000034603F40053002B00F0DA807B681B688D
:1015F000184602F06DFB7B681B687A681268D26837
:1016000022F47052DA607B681B68184601F010FC07
:101610000346002B0FD17B680022DA607B684FF411
:1016200000725A617B681B687A681268D26842F45B
:101630001052DA60A9E07B680322DA607B684022FE
:101640005A6101F0ABF838613B697B4A93420CD98F
:101650003B697A4A934208D87B681B687A681268AB
:10166000D26842F47052DA608FE03B69734A934269
:101670000CD93B69724A934208D87B681B687A6828
:101680001268D26842F46052DA607EE03B696C4ACC
:1016900093420CD93B696B4A934208D87B681B681C
:1016A0007A681268D26842F45052DA606DE03B69A1
:1016B000644A93420CD93B69634A934208D87B68D9
:1016C0001B687A681268D26842F44052DA605CE0C3
:1016D0003B695D4A93420CD93B695C4A934208D806
:1016E0007B681B687A681268D26842F43052DA600C
:1016F0004BE03B69554A93420CD93B69544A9342AB
:1017000008D87B681B687A681268D26842F4205255
:10171000DA603AE03B694E4A93420CD93B694D4A44
:10172000934208D87B681B687A681268D26842F4D2
:101730001052DA6029E03B69464A93420CD93B6972
:10174000454A934208D87B681B687A681268D26859
:1017500042F40052DA6018E03B693F4A93420CD9E8
:101760003B693E4A934208D87B681B687A681268D6
:10177000D26842F4E052DA6007E07B681B687A685E
:101780001268D26842F4C052DA60786804F0D2FA83
:101790007B681B687A681268526902F400525A61C9
:1017A0007B681B68184602F0F9F9034603F0100342
:1017B000002B74D07B681B687A681268926922F0EB
:1017C00010029A613B6A1B6A7B617B6903F00F021E
:1017D0001346DB009B1A9B0003F5FC737A681344E5
:1017E000FB607B695B0C03F00F03022B38D17A6935
:1017F00047F6F0731340002B49D0FB68D9687B692A
:101800001B099BB2C3F30A039BB21A46386A02F063
:1018100067F8FB68DA687B691B09C3F30A031A449B
:10182000FB68DA60FB689A697B691B09C3F30A03EA
:101830001A44FB689A612AE0BFACD800BFE1E4001B
:10184000FF23F4007F7306019F491A01FF2C310129
:101850003FA44C01FF356E011FABA601FF47E80115
:101860007B695B0C03F00F03062B10D17B6803F53B
:101870006F7308221946386A02F032F8FB689A69D9
:101880007B691B09C3F30A031A44FB689A617B68EE
:101890001B687A681268926942F010029A617B684C
:1018A0001B68184602F07AF9034603F00803002B80
:1018B0000AD0786804F030FA7B681B687A6812688E
:1018C000526902F008025A617B681B68184602F0F0
:1018D00065F9034603F48013002B0DD07B6ADBB25D
:1018E0001946786804F096FA7B681B687A68126873
:1018F000526902F480125A617B681B68184602F034
:101900004DF9034603F40013002B0DD07B6ADBB2C4
:101910001946786804F06CFA7B681B687A6812686C
:10192000526902F400125A617B681B68184602F083
:1019300035F9034603F08043002B0AD0786804F0A1
:101940007BFA7B681B687A681268526902F08042F1
:101950005A617B681B68184602F020F9034603F0C1
:101960000403002B15D07B681B685B687B617B6977
:1019700003F00403002B02D0786804F06BFA7B6854
:101980001B687A68126851687A690A435A6000E0F5
:1019900000BF3037BD4680BD80B582B000AF7860F3
:1019A0000B46FB707B6893F8B833012B01D10223FF
:1019B0000FE07B68012283F8B8237B681B68FA7804
:1019C0001146184602F094F87B68002283F8B82389
:1019D000002318460837BD4680BD00BF80B584B0DF
:1019E00000AF7860084611461A460346FB700B4666
:1019F0003B801346BB700023FB7297F90330002B2A
:101A00000BDAFB7803F07F021346DB009B1A9B0086
:101A100038337A681344FB600BE0FB7803F07F02F5
:101A20001346DB009B1A9B0003F5FC737A68134492
:101A3000FB60FB7803F07F03DAB2FB681A7097F95A
:101A40000330DBB2DB09DBB21A46FB685A703A8816
:101A5000FB689A60FB68BA78DA70FB685B78002BE9
:101A600004D0FB681B789AB2FB68DA80BB78022B43
:101A700002D1FB6800221A717B6893F8B833012BFE
:101A800001D102230EE07B68012283F8B8237B6832
:101A90001B68F968184601F001FA7B68002283F898
:101AA000B823FB7A18461037BD4680BD80B584B098
:101AB00000AF78600B46FB7097F90330002B0BDA10
:101AC000FB7803F07F021346DB009B1A9B00383340
:101AD0007A681344FB600BE0FB7803F07F02134647
:101AE000DB009B1A9B0003F5FC737A681344FB60D0
:101AF000FB7803F07F03DAB2FB681A7097F90330C2
:101B0000DBB2DB09DBB21A46FB685A707B6893F8DC
:101B1000B833012B01D102230EE07B68012283F848
:101B2000B8237B681B68F968184601F041FA7B68A6
:101B3000002283F8B823002318461037BD4680BD25
:101B400080B586B000AFF8607A603B600B46FB72F0
:101B5000FB7A03F07F021346DB009B1A9B0003F520
:101B6000FC73FA6813447B617B697A68DA607B698D
:101B70003A685A617B6900229A617B6900225A7037
:101B8000FB7A03F07F03DAB27B691A70FB681B698A
:101B9000012B02D17A687B691A61FB7A03F07F031B
:101BA000002B09D1FB681868FB681B69DBB21A4679
:101BB000796901F0FFFC08E0FB681868FB681B69A5
:101BC000DBB21A46796901F0B3FA002318461837D8
:101BD000BD4680BD80B483B000AF78600B46FB701B
:101BE000FB7803F00F0279681346DB009B1A9B0019
:101BF0000B4403F504731B689BB218460C37BD46B3
:101C00005DF8047B704700BF80B586B000AFF86018
:101C10007A603B600B46FB72FB7A03F07F0213464F
:101C2000DB009B1A9B003833FA6813447B617B69A5
:101C30007A68DA607B693A685A617B6900229A6146
:101C40007B6901225A70FB7A03F07F03DAB27B6969
:101C50001A70FB681B69012B02D17A687B691A61D3
:101C6000FB7A03F07F03002B09D1FB681868FB683F
:101C70001B69DBB21A46796901F09CFC08E0FB683D
:101C80001868FB681B69DBB21A46796901F050FAE3
:101C9000002318461837BD4680BD00BF80B584B00C
:101CA00000AF78600B46FB7097F90330002B0BDA1E
:101CB000FB7803F07F021346DB009B1A9B0038334E
:101CC0007A681344FB6009E0FA781346DB009B1A3C
:101CD0009B0003F5FC737A681344FB60FB680122E8
:101CE0009A70FB7803F07F03DAB2FB681A7097F9F9
:101CF0000330DBB2DB09DBB21A46FB685A707B6843
:101D000093F8B833012B01D102231EE07B68012236
:101D100083F8B8237B681B68F968184601F008FE51
:101D2000FB7803F07F03002B0AD17B6818687B687F
:101D30001B69D9B27B6803F56F731A4601F0FEFF89
:101D40007B68002283F8B823002318461037BD466D
:101D500080BD00BF80B584B000AF78600B46FB70DB
:101D600097F90330002B0BDAFB7803F07F02134660
:101D7000DB009B1A9B0038337A681344FB6009E050
:101D8000FA781346DB009B1A9B0003F5FC737A6814
:101D90001344FB60FB6800229A70FB7803F07F031A
:101DA000DAB2FB681A7097F90330DBB2DB09DBB2F9
:101DB0001A46FB685A707B6893F8B833012B01D13F
:101DC00002230EE07B68012283F8B8237B681B683E
:101DD000F968184601F01EFE7B68002283F8B823DC
:101DE000002318461037BD4680BD00BF80B58AB0BD
:101DF00002AF786039607B681B687B610023FB6100
:101E000000233B613A681346DB009B1A9B00383382
:101E10007A681344FB60FB685A69FB689B69D31AB4
:101E2000FB61FB689A68FB699A4202D2FB689B6877
:101E3000FB61FB6903339B08BB612BE0FB685A69BC
:101E4000FB689B69D31AFB61FB689A68FB699A423D
:101E500002D2FB689B68FB61FB6903339B08BB6193
:101E6000FB68D9683B68DAB2FB6998B27B681B698A
:101E7000DBB200930346786901F0FCFCFB68DA688A
:101E8000FB691A44FB68DA60FB689A69FB691A44CB
:101E9000FB689A613B685A017B69134403F5106340
:101EA0009B699AB2BB699A4209D9FB689A69FB6837
:101EB0005B699A4203D2FB685B69002BBED1FB6968
:101EC000002B10D101223B6802FA03F33B617B69CE
:101ED00003F5006319467B6903F500635A6B3B69A0
:101EE000DB4313404B63002318462037BD4680BDBB
:101EF00080B485B000AF78600B46FB7013463B8022
:101F00000023FB730023BB607B681B685B6ABB60BC
:101F1000FB78002B07D17B681B683A881104BA68EC
:101F20000A439A6228E07B681B689B6A1B0CBA68AC
:101F30001344BB600023FB730DE07B681A68FB7BD6
:101F400040339B0013445B681B0CBA681344BB60AE
:101F5000FB7B0133FB73FA7BFB78013B9A42ECDBA2
:101F60007B681968FB78013B3A881004BA68024321
:101F700040339B000B445A60002318461437BD467B
:101F80005DF8047B704700BF80B483B000AF786019
:101F90000B467B807B681B687A885A620023184650
:101FA0000C37BD465DF8047B704700BF80B586B036
:101FB00000AF78607B68002B01D101232CE27B68A5
:101FC0001B6803F00103002B74D0A74B9B6803F040
:101FD0000C03042B0BD0A44B9B6803F00C03082BC1
:101FE00011D1A14B5B6803F48003002B0BD09E4BF7
:101FF0001B6803F40033002B5BD07B685B68002B0D
:1020000057D1012308E27B685B68B3F5803F06D1B6
:10201000954A954B1B6843F4803313601DE07B6841
:102020005B68B3F5A02F0CD18F4A8F4B1B6843F42C
:10203000802313608C4A8C4B1B6843F480331360FD
:102040000BE0894A884B1B6823F480331360864A6F
:10205000854B1B6823F4802313607B685B68002B2F
:1020600013D0FEF7A9FB386108E0FEF7A5FB024696
:102070003B69D31A642B01D90323CDE17A4B1B684A
:1020800003F40033002BF0D014E0FEF795FB386129
:1020900008E0FEF791FB02463B69D31A642B01D995
:1020A0000323B9E1704B1B6803F40033002BF0D11C
:1020B00000E000BF7B681B6803F00203002B63D0C5
:1020C000694B9B6803F00C03002B0BD0664B9B689D
:1020D00003F00C03082B1CD1634B5B6803F48003F3
:1020E000002B16D1604B1B6803F00203002B05D0B8
:1020F0007B68DB68012B01D001238DE15A495A4BE3
:102100001B6823F0F8027B681B69DB0013430B603C
:102110003AE07B68DB68002B20D0544B01221A6028
:10212000FEF74AFB386108E0FEF746FB02463B69D2
:10213000D31A022B01D903236EE14B4B1B6803F02A
:102140000203002BF0D04849474B1B6823F0F802EC
:102150007B681B69DB0013430B6015E0434B0022D7
:102160001A60FEF729FB386108E0FEF725FB0246FE
:102170003B69D31A022B01D903234DE13A4B1B686B
:1021800003F00203002BF0D17B681B6803F0080307
:10219000002B30D07B685B69002B16D0344B0122BA
:1021A0001A60FEF709FB386108E0FEF705FB0246FE
:1021B0003B69D31A022B01D903232DE12A4B5B6F14
:1021C00003F00203002BF0D015E0294B00221A6027
:1021D000FEF7F2FA386108E0FEF7EEFA02463B69D4
:1021E000D31A022B01D9032316E11F4B5B6F03F0B7
:1021F0000203002BF0D17B681B6803F00403002B63
:1022000000F0A0800023FB75174B1B6C03F080537C
:10221000002B0FD10023FB60134A134B1B6C43F0C0
:1022200080531364104B1B6C03F08053FB60FB68FE
:102230000123FB750F4B1B6803F48073002B21D126
:102240000C4A0C4B1B6843F480731360FEF7B4FA1E
:10225000386111E0FEF7B0FA02463B69D31A022B4F
:102260000AD90323D8E000BF0038024000004742EB
:10227000800E474200700040694B1B6803F4807376
:10228000002BE7D07B689B68012B06D1654A654B24
:102290001B6F43F0010313671CE07B689B68052BF1
:1022A0000CD1604A5F4B1B6F43F0040313675D4A18
:1022B0005C4B1B6F43F0010313670BE0594A594B0A
:1022C0001B6F23F001031367564A564B1B6F23F015
:1022D000040313677B689B68002B15D0FEF76CFA2C
:1022E00038610AE0FEF768FA02463B69D31A41F208
:1022F0008832934201D903238EE04A4B1B6F03F0CF
:102300000203002BEED014E0FEF756FA38610AE023
:10231000FEF752FA02463B69D31A41F288329342E1
:1023200001D9032378E03F4B1B6F03F00203002B1E
:10233000EED1FB7D012B05D13A4A3A4B1B6C23F0C1
:10234000805313647B689B69002B64D0354B9B687A
:1023500003F00C03082B5CD07B689B69022B41D1F6
:10236000314B00221A60FEF727FA386108E0FEF7C9
:1023700023FA02463B69D31A022B01D903234BE00F
:10238000284B1B6803F00073002BF0D125497B68B4
:10239000DA697B681B6A1A437B685B6A9B011A4394
:1023A0007B689B6A5B08013B1B041A437B68DB6A02
:1023B0001B0613434B601C4B01221A60FEF7FCF90D
:1023C000386108E0FEF7F8F902463B69D31A022BA0
:1023D00001D9032320E0134B1B6803F00073002B8B
:1023E000F0D018E0104B00221A60FEF7E5F93861D2
:1023F00008E0FEF7E1F902463B69D31A022B01D946
:10240000032309E0074B1B6803F00073002BF0D196
:1024100001E0012300E0002318461837BD4680BDC7
:1024200000700040003802406000474280B584B030
:1024300000AF786039607B68002B01D10123CAE0CE
:10244000674B1B6803F00F023B689A420CD2644B47
:102450003A68D2B21A70624B1B6803F00F023B68F5
:102460009A4201D00123B6E07B681B6803F00203A7
:10247000002B20D07B681B6803F00403002B05D0E1
:10248000584A584B9B6843F4E05393607B681B6841
:1024900003F00803002B05D0524A524B9B6843F4CB
:1024A000604393604F494F4B9B6823F0F0027B6879
:1024B0009B6813438B607B681B6803F00103002B50
:1024C00044D07B685B68012B07D1464B1B6803F443
:1024D0000033002B19D101237DE07B685B68022B60
:1024E00003D07B685B68032B07D13E4B1B6803F06E
:1024F0000073002B09D101236DE03A4B1B6803F0F8
:102500000203002B01D1012365E03649354B9B685E
:1025100023F003027B685B6813438B60FEF74CF982
:10252000F8600AE0FEF748F90246FB68D31A41F268
:102530008832934201D903234DE02A4B9B6803F074
:102540000C027B685B689B009A42EBD1244B1B68B2
:1025500003F00F023B689A420CD9214B3A68D2B281
:102560001A701F4B1B6803F00F023B689A4201D0A0
:10257000012330E07B681B6803F00403002B08D0C4
:102580001849184B9B6823F4E0527B68DB681343BF
:102590008B607B681B6803F00803002B09D011498E
:1025A000104B9B6823F460427B681B69DB0013437C
:1025B0008B6000F01DF801460A4B9B6803F0F003A6
:1025C0001B09094AD35C21FA03F3084A136000206F
:1025D000FEF7AEF8002318461037BD4680BD00BF99
:1025E000003C0240003802406C7C02084405002098
:1025F0002DE9F04F8FB000AF0023FB6200237B6317
:102600000023BB6200233B63614B9B6803F00C0318
:10261000042B07D0082B08D0002B40F0AF805D4B77
:102620003B63AEE05C4B3B63ABE0594B5B6803F054
:102630003F03FB62564B5B6803F48003002B4DD0D5
:10264000534B5A6847F6C07313409B0919464FF025
:1026500000020B461446E0007862786A40EA537044
:102660007862DB003B62D7E908346001F861F86901
:1026700040EAD360F8615801B861D7E90656ED1A0F
:1026800066EB040633464FEA83192B4649EA936901
:102690002B464FEA8318B8EB050569EB0606A846FA
:1026A000B14618EB010849EB02094FEA49237B6167
:1026B0007B6943EAD8537B614FEA48233B61D7E902
:1026C000048940464946FB6A4FF000041A462346F7
:1026D000FDF78CFD03460C467B6341E02C4B5A68AA
:1026E00047F6C07313409B0919464FF000020B4692
:1026F0001446E000F860F86840EA5370F860DB00C8
:10270000BB60D7E902344FEA441B4BEAD36B4FEA74
:10271000431ABAEB030A6BEB040B4FEA8B1646EA3B
:102720009A664FEA8A15B5EB0A0566EB0B066D183B
:1027300046EB0206B3027B607B6843EA95537B60FD
:10274000AB023B60D7E9005628463146FB6A4FF0A2
:1027500000041A462346FDF749FD03460C467B63F9
:102760000B4B5B6803F440331B0C01335B00BB6213
:102770007A6BBB6AB2FBF3F33B6302E0054B3B634E
:1027800000BF3B6B18463C37BD46BDE8F08F00BF2D
:10279000003802400024F40000127A0080B400AF38
:1027A000034B1B681846BD465DF8047B704700BFAD
:1027B0004405002080B584B000AFF860B9607A604D
:1027C000FB68002B01D1012334E0FB6893F849300A
:1027D000DBB2002B06D1FB68002283F84820F868A2
:1027E00003F0A0F8FB681A68FB6808331946104626
:1027F00000F024F8FB681868FB689B681A46B96803
:1028000000F06EF8FB685868FB689A68FB681B6B01
:10281000796800F0A3F8FB681B68FA689268F968A9
:102820000968F868806851F8201041F0010143F808
:102830002210002318461037BD4680BD80B485B0F5
:1028400000AF786039600023FB603B681A687B68E2
:1028500053F82230FB60FA68204B1340FB603B6862
:102860005A683B689B681A433B68DB681A433B68BD
:102870001B691A433B685B691A433B689B691A43AF
:102880003B68DB691A433B681B6A1A433B685B6A17
:102890001A433B689B6A1A433B68DB6A1A433B68EE
:1028A000DB6B1A433B681B6B1343FA681343FB60F3
:1028B0003B689B68082B03D1FB6843F04003FB6037
:1028C0003B681A687B68F96843F8221000231846B1
:1028D0001437BD465DF8047B704700BF8000F0FFF1
:1028E00080B487B000AFF860B9607A6000237B6184
:1028F0007B685A1CFB6853F822307B617B6903F0CC
:1029000040437B61BB681A68BB685B681B011A4364
:10291000BB689B681B021A43BB68DB681B041A4335
:10292000BB681B69013B1B051A43BB685B69023B23
:102930001B061A43BB689B6913437A6913437B6187
:102940007B685A1CFB68796943F8221000231846FB
:102950001C37BD465DF8047B704700BF80B487B06C
:1029600000AFF860B9607A603B6000237B613B6830
:10297000B3F5804F22D1FB687A6853F822307B612F
:102980007A69154B13407B61BB681A68BB685B684A
:102990001B011A43BB689B681B021A43BB68DB68B8
:1029A0001B041A43BB689B6913437A6913437B6119
:1029B000FB687A68796943F8221005E0FB687A6859
:1029C0006FF0704143F82210002318461C37BD46B3
:1029D0005DF8047B704700BF0000F0CF84B080B585
:1029E00082B000AF786007F1140080E80E00BB6A87
:1029F000012B20D17B689B6B23F480327B689A6328
:102A00007B68DB6823F4840323F040037A68D36097
:102A10007B68DB6823F440127B68DA607B6C012BF7
:102A200005D17B68DB6843F480127B68DA607868E4
:102A300001F0CAF90CE07B68DB6843F040027B6878
:102A4000DA60786801F0C0F97B684FF480329A63ED
:102A50003B6A012B0BD17B689B6843F006027B68C5
:102A60009A607B689B6843F020027B689A60002331
:102A700018460837BD46BDE8804004B0704700BF27
:102A800080B483B000AF78607B689B6843F001023C
:102A90007B689A60002318460C37BD465DF8047BBE
:102AA000704700BF80B483B000AF78607B689B68DC
:102AB00023F001027B689A60002318460C37BD465C
:102AC0005DF8047B704700BF80B582B000AF7860CE
:102AD0000B46FB707B68DB6823F0C0427B68DA60E2
:102AE000FB78012B06D17B68DB6843F000527B68E2
:102AF000DA6008E0FB78002B05D17B68DB6843F0E7
:102B000080427B68DA603220FDF762FE00231846BF
:102B10000837BD4680BD00BF84B080B584B000AF2B
:102B2000786007F11C0080E80E000023FB607B6CDE
:102B3000002B06D17B689B6B43F400127B689A6381
:102B400005E07B689B6B43F400227B689A637B689B
:102B500003F560631A46002313607B6803F5006386
:102B60001A467B6803F500631B6813603B6B012BFF
:102B70000CD17B6A002B04D10021786800F040F969
:102B800008E00121786800F03BF903E00321786850
:102B900000F036F91021786800F0EAF8786800F063
:102BA0000DF97B6803F500631A46002313617B6807
:102BB00003F500631A46002353617B6803F5006345
:102BC0001A464FF0FF3393617B6803F500631A46A2
:102BD0000023D3610023FB6031E0FB685A017B686E
:102BE000134403F510631B68002B0ADAFB685A01D3
:102BF0007B68134403F510631A464FF0904313604B
:102C000008E0FB685A017B68134403F510631A4619
:102C100000231360FB685A017B68134403F51063BB
:102C20001A4600231361FB685A017B68134403F5BD
:102C300010631A46FF239360FB680133FB60FA6957
:102C4000FB689A42C9D80023FB6031E0FB685A0157
:102C50007B68134403F530631B68002B0ADAFB68BA
:102C60005A017B68134403F530631A464FF09043D2
:102C7000136008E0FB685A017B68134403F5306376
:102C80001A4600231360FB685A017B68134403F55E
:102C900030631A4600231361FB685A017B681344B2
:102CA00003F530631A46FF239360FB680133FB6032
:102CB000FA69FB689A42C9D87B6803F500631A4633
:102CC0007B6803F500631B6923F480731361BB6A9F
:102CD000012B17D17B6803F500631A46224B13635F
:102CE0007B6803F500631A467B6803F500631B6B82
:102CF00043F4803343F0030313637B6803F50063FD
:102D00001B6BFB607B6800229A617B686FF08042DE
:102D10005A61BB6A002B05D17B689B6943F01002A6
:102D20007B689A617B689A69104B13437A68936158
:102D30007B6B002B05D07B689B6943F008027B68A6
:102D40009A617B6C012B07D17B689B6943F08043C0
:102D500043F004037A689361002318461037BD4698
:102D6000BDE8804004B070470001800000383C801E
:102D700080B485B000AF786039600023FB603B68A9
:102D80009B0143F020027B681A61FB680133FB6002
:102D9000FB68094A934201D9032306E07B681B695B
:102DA00003F02003002BF0D1002318461437BD4652
:102DB0005DF8047B704700BF400D030080B485B010
:102DC00000AF78600023FB607B6810221A61FB680B
:102DD0000133FB60FB68094A934201D9032306E0F3
:102DE0007B681B6903F01003002BF0D10023184609
:102DF0001437BD465DF8047B704700BF400D0300EB
:102E000080B483B000AF78600B46FB707B6803F53D
:102E1000006319467B6803F500631A68FB78134367
:102E20000B60002318460C37BD465DF8047B7047E5
:102E300080B485B000AF78600023FB737B6803F536
:102E400000639B6803F00603002B02D10023FB7391
:102E50001CE07B6803F500639B6803F00603022B0C
:102E600007D07B6803F500639B6803F00603062B1D
:102E700002D10323FB7309E07B6803F500639B68C1
:102E800003F00603042B01D10223FB73FB7B1846DE
:102E90001437BD465DF8047B704700BF80B483B033
:102EA00000AF786039603B685B78012B3ED17B686E
:102EB00003F5006319467B6803F50063DA693B6834
:102EC0001B781846012383409BB21343CB613B68B8
:102ED0001B785A017B68134403F510631B6803F4E5
:102EE0000043002B5CD13B681B785A017B6813447C
:102EF00003F5106318463B681B785A017B6813443E
:102F000003F510631A683B689B68C3F30A033968CA
:102F1000C97889040B433968097889050B43134341
:102F200043F0805343F40043036039E07B6803F5CA
:102F3000006319467B6803F50063DA693B681B7818
:102F40001846012383401B041343CB613B681B7865
:102F50005A017B68134403F530631B6803F4004394
:102F6000002B1DD13B681B785A017B68134403F585
:102F7000306318463B681B785A017B68134403F59D
:102F800030631A683B689B68C3F30A033968C978E1
:102F900089040B43134343F0805343F4004303601D
:102FA000002318460C37BD465DF8047B704700BF10
:102FB00080B584B000AF786039600023FB603B6867
:102FC0005B78012B53D13B681B785A017B68134413
:102FD00003F5106319463B681B785A017B6813445C
:102FE00003F510631B6823F400430B603B681B78F8
:102FF0005A017B68134403F510631A464FF00063CF
:1030000013603B681B785A017B68134403F5106317
:103010001A464FF080431360FB680133FB60FB6886
:10302000424A934201D903237CE03B681B785A0152
:103030007B68134403F510639B6803F08043002B07
:10304000EAD110217868FFF793FE7B6803F50063EF
:1030500019467B6803F50063DA693B681B781846FC
:10306000012383409BB2DB431340CB6159E03B68B3
:103070001B785A017B68134403F5306319463B689B
:103080001B785A017B68134403F530631B6823F4F3
:1030900000430B603B681B785A017B68134403F5BF
:1030A00030631A464FF0006313603B681B785A0187
:1030B0007B68134403F530631A464FF08043136076
:1030C000FB680133FB60FB68184A934201D9032374
:1030D00028E03B681B785A017B68134403F5306392
:1030E0009B6803F01003002BEAD17B6803F50063B3
:1030F0001A467B6803F500635B6843F480635360A2
:103100007B6803F5006319467B6803F50063DA69A1
:103110003B681B781846012383401B04DB431340A4
:10312000CB61002318461037BD4680BD400D03001B
:1031300080B588B002AFF860B9601346FB71002318
:10314000FB82BB685B78012B40F04681BB685B6902
:10315000002B3BD1BB681B785A01FB68134403F575
:1031600010631946BB681B785A01FB68134403F5CA
:1031700010631B6923F0FF5323F4C0130B61BB687A
:103180001B785A01FB68134403F510631946BB68AA
:103190001B785A01FB68134403F510631B6943F461
:1031A00000230B61BB681B785A01FB68134403F5CD
:1031B00010631946BB681B785A01FB68134403F57A
:1031C00010631B69DB0CDB040B6186E0BB681B78BA
:1031D0005A01FB68134403F510631946BB681B785A
:1031E0005A01FB68134403F510631B69DB0CDB0415
:1031F0000B61BB681B785A01FB68134403F510632D
:103200001946BB681B785A01FB68134403F5106329
:103210001B6923F0FF5323F4C0130B61BB681B78B9
:103220005A01FB68134403F510631846BB681B780A
:103230005A01FB68134403F510631A69BB685969A6
:10324000BB689B680B44591EBB689B68B1FBF3F3DA
:10325000D9048C4B0B4013430361BB681B785A01A4
:10326000FB68134403F510631946BB681B785A01C9
:10327000FB68134403F510631A69BB685B69C3F309
:10328000120313430B61BB68DB78012B25D1BB68AC
:103290001B785A01FB68134403F510631946BB6899
:1032A0001B785A01FB68134403F510631B6923F074
:1032B000C0430B61BB681B785A01FB68134403F5DC
:1032C00010631946BB681B785A01FB68134403F569
:1032D00010631B6943F000530B61FB79012B0BD189
:1032E000BB681B785A01FB68134403F510631A4648
:1032F000BB681B69536116E0BB68DB78012B12D0F9
:10330000BB685B69002B0ED0FB6803F500631946B0
:10331000FB6803F500635A6BBB681B7818460123F2
:10332000834013434B63BB68DB78012B2ED1FB68D2
:1033300003F500639B6803F48073002B13D1BB6813
:103340001B785A01FB68134403F510631946BB68E8
:103350001B785A01FB68134403F510631B6843F0A4
:1033600000530B6012E0BB681B785A01FB681344E2
:1033700003F510631946BB681B785A01FB681344B8
:1033800003F510631B6843F080530B60BB681B7828
:103390005A01FB68134403F510631946BB681B7898
:1033A0005A01FB68134403F510631B6843F00443A0
:1033B0000B60BB68DB78012B40F0F580BB68D968F7
:1033C000BB681A78BB685B6998B2FB7900930346C7
:1033D000F86800F04FFAE6E0BB681B785A01FB681A
:1033E000134403F530631946BB681B785A01FB6828
:1033F000134403F530631B69DB0CDB040B61BB6812
:103400001B785A01FB68134403F530631946BB6807
:103410001B785A01FB68134403F530631B6923F0E2
:10342000FF5323F4C0130B61BB685B69002B2BD1E6
:10343000BB681B785A01FB68134403F530631946D7
:10344000BB681B785A01FB68134403F530631A69A3
:10345000BB689B68C3F3120313430B61BB681B7803
:103460005A01FB68134403F530631946BB681B78A7
:103470005A01FB68134403F530631B6943F40023CE
:103480000B613CE00000F81FBB685A69BB689B6891
:1034900013445A1EBB689B68B2FBF3F3FB82BB6804
:1034A0001B785A01FB68134403F530631946BB6867
:1034B0001B785A01FB68134403F530631A69FB8AD1
:1034C000DB0418463A4B034013430B61BB681B787F
:1034D0005A01FB68134403F530631846BB681B7838
:1034E0005A01FB68134403F530631A69BB689B6893
:1034F000F98A01FB03F3C3F3120313430361FB795E
:10350000012B0AD1BB681B785A01FB68134403F5F1
:1035100030631A46BB68DB685361BB68DB78012BFC
:103520002ED1FB6803F500639B6803F48073002BC6
:1035300013D1BB681B785A01FB68134403F5306351
:103540001946BB681B785A01FB68134403F53063C6
:103550001B6843F000530B6012E0BB681B785A01F4
:10356000FB68134403F530631946BB681B785A01A6
:10357000FB68134403F530631B6843F080530B6012
:10358000BB681B785A01FB68134403F53063194686
:10359000BB681B785A01FB68134403F530631B6852
:1035A00043F004430B60002318461837BD4680BD26
:1035B0000000F81F80B485B000AFF860B960134612
:1035C000FB71BB685B78012B40F0D280BB685B6904
:1035D000002B3BD1BB681B785A01FB68134403F5F1
:1035E00010631946BB681B785A01FB68134403F546
:1035F00010631B6923F0FF5323F4C0130B61BB68F6
:103600001B785A01FB68134403F510631946BB6825
:103610001B785A01FB68134403F510631B6943F4DC
:1036200000230B61BB681B785A01FB68134403F548
:1036300010631946BB681B785A01FB68134403F5F5
:1036400010631B69DB0CDB040B615AE0BB681B7861
:103650005A01FB68134403F510631946BB681B78D5
:103660005A01FB68134403F510631B69DB0CDB0490
:103670000B61BB681B785A01FB68134403F51063A8
:103680001946BB681B785A01FB68134403F51063A5
:103690001B6923F0FF5323F4C0130B61BB685A6905
:1036A000BB689B689A4203D9BB689A68BB685A6139
:1036B000BB681B785A01FB68134403F51063194675
:1036C000BB681B785A01FB68134403F510631B6940
:1036D00043F400230B61BB681B785A01FB68134459
:1036E00003F510631946BB681B785A01FB68134445
:1036F00003F510631A69BB685B69C3F312031343D4
:103700000B61BB681B785A01FB68134403F5106317
:103710001946BB681B785A01FB68134403F5106314
:103720001B6843F004430B60FB79012B0BD1BB6892
:103730001B785A01FB68134403F510631A46BB68F3
:103740001B6953618EE0BB685B69002B00F08A80C7
:10375000FB6803F500631946FB6803F500635A6BC9
:10376000BB681B7818460123834013434B6379E001
:10377000BB681B785A01FB68134403F53063194694
:10378000BB681B785A01FB68134403F530631B695F
:10379000DB0CDB040B61BB681B785A01FB6813442C
:1037A00003F530631946BB681B785A01FB68134464
:1037B00003F530631B6923F0FF5323F4C0130B613F
:1037C000BB685B69002B03D0BB689A68BB685A6111
:1037D000BB681B785A01FB68134403F53063194634
:1037E000BB681B785A01FB68134403F530631B69FF
:1037F00043F400230B61BB681B785A01FB68134438
:1038000003F530631946BB681B785A01FB68134403
:1038100003F530631A69BB689B68C3F31203134353
:103820000B61FB79012B0AD1BB681B785A01FB683D
:10383000134403F530631A46BB68DB685361BB6809
:103840001B785A01FB68134403F530631946BB68C3
:103850001B785A01FB68134403F530631B6843F07F
:1038600004430B60002318461437BD465DF8047B03
:10387000704700BF80B487B000AFF860B9601146F0
:103880001A460B46FB711346BB8000233B610023A5
:103890007B6197F82030002B1AD1BB8803339B083B
:1038A0003B6100237B610FE0FB791A03FB68134443
:1038B00003F580531A46BB681B6813607B690133AC
:1038C0007B61BB680433BB607A693B699A42EBD386
:1038D000002318461C37BD465DF8047B704700BFC7
:1038E00080B487B000AFF860B9601346FB80002356
:1038F0007B61FB8803339B083B6100237B610BE00A
:10390000FB6803F580531A68BB681A607B69013352
:103910007B61BB680433BB607A693B699A42EFD331
:10392000BB6818461C37BD465DF8047B704700BF76
:1039300080B483B000AF786039603B685B78012B5E
:1039400030D13B681B785A017B68134403F5106340
:103950001B68002B12DB3B681B785A017B68134401
:1039600003F5106319463B681B785A017B681344C2
:1039700003F510631B6823F080430B603B681B78E2
:103980005A017B68134403F5106319463B681B78A2
:103990005A017B68134403F510631B6843F400135A
:1039A0000B602FE03B681B785A017B68134403F5DA
:1039B00030631B68002B12DB3B681B785A017B6865
:1039C000134403F5306319463B681B785A017B6842
:1039D000134403F530631B6823F080430B603B689E
:1039E0001B785A017B68134403F5306319463B6822
:1039F0001B785A017B68134403F530631B6843F45A
:103A000000130B60002318460C37BD465DF8047B9D
:103A1000704700BF80B483B000AF786039603B6806
:103A20005B78012B2ED13B681B785A017B681344CD
:103A300003F5106319463B681B785A017B681344F1
:103A400003F510631B6823F400130B603B68DB78FD
:103A5000032B03D03B68DB78022B41D13B681B78FA
:103A60005A017B68134403F5106319463B681B78C1
:103A70005A017B68134403F510631B6843F08053BD
:103A80000B602DE03B681B785A017B68134403F5FB
:103A9000306319463B681B785A017B68134403F571
:103AA00030631B6823F400130B603B68DB78032B47
:103AB00003D03B68DB78022B12D13B681B785A019C
:103AC0007B68134403F5306319463B681B785A0141
:103AD0007B68134403F530631B6843F080530B602D
:103AE000002318460C37BD465DF8047B704700BFC5
:103AF00080B483B000AF78600B46FB707B6803F541
:103B000000631A467B6803F500631B6823F4FE63B9
:103B100013607B6803F5006319467B6803F5006357
:103B20001A68FB781B0103F4FE6313430B60002348
:103B300018460C37BD465DF8047B704780B582B0EF
:103B400000AF78607B6803F500631A467B6803F575
:103B500000635B6823F0020353600320FCF738FE28
:103B6000002318460837BD4680BD00BF80B582B02F
:103B700000AF78607B6803F500631A467B6803F545
:103B800000635B6843F0020353600320FCF720FEF0
:103B9000002318460837BD4680BD00BF80B485B0FD
:103BA00000AF78600023FB607B685B69FB607B682B
:103BB0009B69FA681340FB60FB6818461437BD46E2
:103BC0005DF8047B704700BF80B485B000AF7860BB
:103BD0007B6803F500639B69FB607B6803F500630A
:103BE000DB69FA681340FB60FB681B0C184614374E
:103BF000BD465DF8047B704780B485B000AF786047
:103C00007B6803F500639B69FB607B6803F50063D9
:103C1000DB69FA681340FB60FB689BB218461437F7
:103C2000BD465DF8047B704780B485B000AF786016
:103C30000B46FB70FB785A017B68134403F5306335
:103C40009B68FB607B6803F500635B69FA6813405F
:103C5000FB60FB6818461437BD465DF8047B70476F
:103C600080B487B000AF78600B46FB707B6803F5CB
:103C700000631B697B617B6803F500635B6B3B61E1
:103C8000FB783A6922FA03F3DB01DBB27A6913436A
:103C90007B61FB785A017B68134403F510639A68D3
:103CA0007B691340FB60FB6818461C37BD465DF816
:103CB000047B704780B483B000AF78607B685B6939
:103CC00003F0010318460C37BD465DF8047B7047CE
:103CD00080B483B000AF78607B6803F510631A4648
:103CE0007B6803F510631B6823F4FF6323F007036D
:103CF00013607B6803F500639B6803F00603042BE5
:103D00000AD17B6803F510631A467B6803F51063DC
:103D10001B6843F0030313607B6803F500631A46D6
:103D20007B6803F500635B6843F480735360002392
:103D300018460C37BD465DF8047B704780B485B0EB
:103D400000AFF8600B467A60FB72FB6803F53063E6
:103D50001A4600231361FB6803F530631A46FB68BB
:103D600003F530631B6943F400231361FB6803F51B
:103D700030631A46FB6803F530631B6943F0180390
:103D80001361FB6803F530631A46FB6803F5306383
:103D90001B6943F0C0431361FB7A012B0CD1FB6814
:103DA00003F530631A467B685361FB6803F53063A3
:103DB0001A464FF080231360002318461437BD467F
:103DC0005DF8047B704700BF80B485B000AF7860B9
:103DD0000023FB60FB680133FB60FB68134A9342DE
:103DE00001D903231BE07B681B69002BF2DA002357
:103DF000FB607B681B6943F001027B681A61FB680A
:103E00000133FB60FB68094A934201D9032306E0B2
:103E10007B681B6903F00103002BF0D100231846D7
:103E20001437BD465DF8047B704700BF400D0300AA
:103E300080B584B000AF78600B46FB700023FB7345
:103E40007B681B7C002B0ED14FF400730222812172
:103E5000786802F093F84FF4007302220121786829
:103E600002F08CF80BE0402302228121786802F0F6
:103E700085F8402302220121786802F07FF80823A8
:103E800003228221786802F079F84FF4077021F05C
:103E90003DFE03461A467B68C3F818227B68D3F8B8
:103EA0001832002B02D10123FB7326E07B68D3F884
:103EB0001832BB607B68D3F81C321B689847BB681C
:103EC0000022C3F81422BB680022C3F818227B68C2
:103ED0001B7C002B09D1BB68D3F804224FF400737C
:103EE0000121786802F0C6F907E0BB68D3F8042224
:103EF00040230121786802F0BDF9FB7B184610379A
:103F0000BD4680BD80B584B000AF78600B46FB70C5
:103F10000023FB738121786802F06EF80121786834
:103F200002F06AF88221786802F066F87B68D3F8BC
:103F30001832002B0ED07B68D3F81C325B68984790
:103F40007B68D3F81832184621F0E8FD7B68002220
:103F5000C3F81822FB7B18461037BD4680BD00BF52
:103F600080B584B000AF786039607B68D3F81832D0
:103F7000FB603B681B7803F06003002B3AD0202BDA
:103F800000D043E03B68DB88002B29D03B681B78DE
:103F90005BB2002B11DA7B68D3F81C329B683A685D
:103FA0005078F9683A68D2889847F9683B68DB88A6
:103FB0001A46786801F068F829E03B685A78FB688F
:103FC00083F800223B68DB88DAB2FB6883F80122C1
:103FD000F9683B68DB881A46786801F083F816E0D8
:103FE0007B68D3F81C329B683A68507800223968A5
:103FF00098470CE03B685B780A2B01D00B2B05E05F
:1040000001220549786801F03FF800BF00BF002396
:1040100018461037BD4680BD5C09002080B485B0CD
:1040200000AF78600B46FB707B68D3F81832FB60FA
:104030007B68D3F81832002B05D0FB680022C3F848
:104040001422002300E0022318461437BD465DF811
:10405000047B704780B584B000AF78600B46FB707E
:104060007B68D3F81832FB60FB781946786802F059
:104070003BF90246FB68C3F80C227B68D3F8183280
:10408000002B0DD07B68D3F81C32DB68FA68D2F8BD
:104090000402FA6802F5037211469847002300E013
:1040A000022318461037BD4680BD00BF80B584B0DE
:1040B00000AF78607B68D3F81832FB607B68D3F878
:1040C0001C32002B15D0FB6893F80032FF2B10D068
:1040D0007B68D3F81C329B68FA6892F80002F96892
:1040E000FA6892F8012292B29847FB68FF2283F89F
:1040F0000022002318461037BD4680BD80B483B02F
:1041000000AF78607B6843221A80034B18460C3757
:10411000BD465DF8047B7047BC04002080B483B0CA
:1041200000AF78607B6843221A80034B18460C3737
:10413000BD465DF8047B70477804002080B483B0EE
:1041400000AF78607B6843221A80034B18460C3717
:10415000BD465DF8047B70470005002080B483B045
:1041600000AF78607B680A221A80034B18460C3730
:10417000BD465DF8047B70473404002080B485B0F0
:1041800000AF786039600223FB733B68002B05D0D9
:104190007B683A68C3F81C220023FB73FB7B18463C
:1041A0001437BD465DF8047B704700BF80B487B00C
:1041B00000AFF860B9601346FB80FB68D3F8183293
:1041C0007B617B69BA68C3F80822FA887B69C3F807
:1041D0001022002318461C37BD465DF8047B70474B
:1041E00080B485B000AF786039607B68D3F818324E
:1041F000FB60FB683A68C3F80422002318461437B2
:10420000BD465DF8047B704780B584B000AF786030
:104210007B68D3F81832FB607B68D3F81832002B28
:1042200017D0FB68D3F81432002B10D1FB680122A1
:10423000C3F81422FB68D3F80822FB68D3F81032C5
:104240009BB28121786801F0DBFF002302E00123AB
:1042500000E0022318461037BD4680BD80B584B00B
:1042600000AF78607B68D3F81832FB607B68D3F8C6
:104270001832002B17D07B681B7C002B09D1FB6800
:10428000D3F804224FF400730121786801F0F2FFA3
:1042900007E0FB68D3F8042240230121786801F08D
:1042A000E9FF002300E0022318461037BD4680BD19
:1042B00080B584B000AFF860B9601346FB71FB684D
:1042C000002B01D102231AE0FB68D3F81432002B33
:1042D00003D0FB680022C3F81422BB68002B03D074
:1042E000FB68BA68C3F81022FB68012283F8FC213E
:1042F000FB68FA791A70F86801F0BAFD00231846D5
:104300001037BD4680BD00BF80B485B000AF786077
:1043100039600023FB733B68002B06D07B683A684A
:10432000C3F814220023FB7301E00223FB73FB7B21
:1043300018461437BD465DF8047B704780B582B0DF
:1043400000AF7860786801F0E7FD00231846083771
:10435000BD4680BD80B483B000AF786000231846AE
:104360000C37BD465DF8047B704700BF80B584B054
:1043700000AF78600B46FB700223FB737B68D3F8B9
:104380001432002B0CD07B68D3F814321B68FA78F7
:104390001146786898470346002B01D10023FB7330
:1043A000FB7B18461037BD4680BD00BF80B582B08C
:1043B00000AF78600B46FB707B68D3F814325B6803
:1043C000FA78114678689847002318460837BD46A2
:1043D00080BD00BF80B582B000AF786039607B6877
:1043E00003F502733968184600F0A2FD7B680122CC
:1043F000C3F8F4217B68B3F80E321A467B68C3F821
:10440000F8217B6893F8083203F01F03012B0BD0CF
:10441000022B11D0002B17D17B6803F502731946CC
:10442000786800F0CFF91AE07B6803F5027319464B
:10443000786800F017FA12E07B6803F502731946FA
:10444000786800F043FA0AE07B6893F8083223F0BA
:104450007F03DBB21946786801F004FE00BF002339
:1044600018460837BD4680BD80B586B000AFF860FD
:104470000B467A60FB72FB7A002B38D1FB6803F5A0
:1044800082737B61FB68D3F8F431032B42D17B69E3
:104490009A687B69DB689A4214D97B699A687B6960
:1044A000DB68D21A7B699A607B69DA687B699B68F2
:1044B000934228BF13469BB21A467968F86800F009
:1044C0002FFE27E0FB68D3F814321B69002B0AD0BB
:1044D000FB6893F8FC31032B05D1FB68D3F8143249
:1044E0001B69F8689847F86800F02CFE12E0FB683A
:1044F000D3F814329B69002B0CD0FB6893F8FC3185
:10450000032B07D1FB68D3F814329B69FA7A114662
:10451000F8689847002318461837BD4680BD00BF8D
:1045200080B586B000AFF8600B467A60FB72FB7A0C
:10453000002B6CD1FB6814337B61FB68D3F8F4313A
:10454000022B57D17B699A687B69DB689A4215D93F
:104550007B699A687B69DB68D21A7B699A607B69A0
:104560009B689BB21A467968F86800F0A9FD0023A1
:1045700000220021F86801F07DFE3BE07B695B686A
:104580007A69D268B3FBF2F102FB01F29B1A002BAD
:104590001CD17B695A687B69DB689A4216D37B69B8
:1045A0005A68FB68D3F8F8319A420FD200220021F2
:1045B000F86800F085FDFB680022C3F8F8210023AD
:1045C00000220021F86801F055FE13E0FB68D3F8E3
:1045D0001432DB68002B0AD0FB6893F8FC31032B04
:1045E00005D1FB68D3F81432DB68F8689847F8689F
:1045F00000F0BCFDFB6893F80032012B1AD1F8687B
:10460000FFF7A8FEFB68002283F8002212E0FB6897
:10461000D3F814325B69002B0CD0FB6893F8FC31A3
:10462000032B07D1FB68D3F814325B69FA7A114681
:10463000F8689847002318461837BD4680BD00BF6C
:1046400080B582B000AF78604023002200217868F6
:1046500001F094FC7B684022C3F810214023002223
:104660008021786801F08AFC7B6840221A627B68AE
:10467000012283F8FC217B68D3F81832002B09D083
:104680007B68D3F814325B687A685268D2B21146FC
:1046900078689847002318460837BD4680BD00BF9C
:1046A00080B483B000AF78600B46FB707B68FA780B
:1046B0001A74002318460C37BD465DF8047B70471A
:1046C00080B483B000AF78607B6893F8FC217B688E
:1046D00083F8FD217B68042283F8FC21002318461F
:1046E0000C37BD465DF8047B704700BF80B483B0D3
:1046F00000AF78607B6893F8FD217B6883F8FC212C
:10470000002318460C37BD465DF8047B704700BF98
:1047100080B582B000AF78607B6893F8FC31032BE2
:104720000BD17B68D3F81432DB69002B05D07B6892
:10473000D3F81432DB6978689847002318460837A5
:10474000BD4680BD80B483B000AF78600B46FB707F
:10475000002318460C37BD465DF8047B704700BF48
:1047600080B483B000AF78600B46FB70002318461E
:104770000C37BD465DF8047B704700BF80B483B042
:1047800000AF7860002318460C37BD465DF8047B07
:10479000704700BF80B582B000AF78607B680122AF
:1047A00083F8FC217B68D3F814325B687A6852681E
:1047B000D2B2114678689847002318460837BD469C
:1047C00080BD00BF80B584B000AF78603960002341
:1047D000FB733B685B78092B39D801A252F823F0B0
:1047E00031480008454800084F4800083B48000889
:1047F0004F48000813480008094800084F480008BF
:10480000274800081D4800083968786800F036F924
:1048100022E03968786800F025FA1DE03968786888
:1048200000F05EFA18E03968786800F0E1FA13E009
:104830003968786800F00EFB0EE03968786800F09F
:1048400033FB09E03968786800F04AFB04E0396816
:10485000786800F0ABFB00BFFB7B18461037BD4605
:1048600080BD00BF80B584B000AF786039600023A0
:10487000FB737B6893F8FC31032B1BD13B689B884F
:10488000DBB2012B11D87B68D3F814329B683968EE
:10489000786898473B68DB88002B10D1FB7B002BA6
:1048A0000DD1786800F04EFC09E03968786800F0B6
:1048B0007DFB04E03968786800F078FB00E000BF19
:1048C000002318461037BD4680BD00BF80B584B0B8
:1048D00000AF786039600023FB733B689B88BB7333
:1048E0003B681B7803F06003202B08D17B68D3F86A
:1048F00014329B683968786898470023BAE03B68AF
:104900005B78012B39D0032B02D0002B6BD0B0E0A9
:104910007B6893F8FC31022B02D0032B0CD025E0EE
:10492000BB7B002B27D0BB7B802B24D0BB7B1946C5
:10493000786801F097FB1EE03B685B88002B0AD18A
:10494000BB7B002B07D0BB7B802B04D0BB7B1946E5
:10495000786801F087FB7B68D3F814329B6839686C
:1049600078689847786800F0EDFB05E0396878686A
:1049700000F01CFB00E000BF7BE07B6893F8FC319B
:10498000022B02D0032B0CD024E0BB7B002B26D0C3
:10499000BB7B802B23D0BB7B1946786801F062FB80
:1049A0001DE03B685B88002B1BD1BB7B03F07F03C2
:1049B000002B0BD0BB7B1946786801F089FB7B6824
:1049C000D3F814329B68396878689847786800F0A3
:1049D000B9FB06E03968786800F0E8FA02E000BF49
:1049E00047E000BF45E07B6893F8FC31022B02D022
:1049F000032B0BD036E0BB7B03F07F03002B36D0BC
:104A0000BB7B1946786801F02DFB30E097F90E303A
:104A1000002B08DABB7B03F07F0301331B017A68AC
:104A20001344043307E0BB7B03F07F0310331B0107
:104A30007A6813440433BB60BB7B1946786801F085
:104A40007DFB0346002B03D0BB6801221A6002E005
:104A5000BB6800221A60BB6802221946786800F021
:104A600013FB05E03968786800F0A0FA00E000BFA9
:104A700000BFFB7B18461037BD4680BD80B584B0B3
:104A800000AF786039603B685B881B0A9BB2013BD2
:104A9000062B00F2C98001A252F823F0B94A00089F
:104AA000D14A0008114B0008294C0008294C000885
:104AB000D54B0008FB4B00087B68D3F810321B680D
:104AC0007A68127C07F10A0110469847F860B0E056
:104AD0007B681B7C002B0DD17B68D3F814329B6A5A
:104AE00007F10A0210469847F860FB68013302227A
:104AF0001A709EE07B68D3F81432DB6A07F10A0271
:104B000010469847F860FB68013302221A7090E063
:104B10003B685B88DBB2052B56D801A252F823F024
:104B2000394B0008514B0008694B0008814B0008C5
:104B3000994B0008B14B00087B68D3F810325B68D2
:104B40007A68127C07F10A0110469847F86040E045
:104B50007B68D3F810329B687A68127C07F10A01EF
:104B600010469847F86034E07B68D3F81032DB6871
:104B70007A68127C07F10A0110469847F86028E02D
:104B80007B68D3F810321B697A68127C07F10A013E
:104B900010469847F8601CE07B68D3F810325B69D8
:104BA0007A68127C07F10A0110469847F86010E015
:104BB0007B68D3F810329B697A68127C07F10A018E
:104BC00010469847F86004E03968786800F0EEF91C
:104BD00044E02EE07B681B7C002B09D17B68D3F876
:104BE00014325B6B07F10A0210469847F86020E028
:104BF0003968786800F0DAF930E07B681B7C002BBC
:104C00000DD17B68D3F814321B6B07F10A021046F2
:104C10009847F860FB68013307221A7009E0396889
:104C2000786800F0C3F919E03968786800F0BEF9D7
:104C300014E07B89002B11D03B68DB88002B0DD062
:104C40003B68DA887B89934228BF13469BB27B81FD
:104C50007B891A46F968786800F016FA1037BD4665
:104C600080BD00BF80B584B000AF786039603B681C
:104C70009B88002B2CD13B68DB88002B28D13B681C
:104C80005B88DBB203F07F03FB737B6893F8FC3136
:104C9000032B04D13968786800F088F91CE07B6840
:104CA000FA7B83F8FE21FB7B1946786801F072FAE3
:104CB000786800F047FAFB7B002B04D07B68022267
:104CC00083F8FC2108E07B68012283F8FC2103E0E3
:104CD0003968786800F06AF900BF1037BD4680BDBA
:104CE00080B582B000AF786039603B685B88DAB22B
:104CF0003E4B1A703D4B1B78012B04D939687868FC
:104D000000F054F96FE07B6893F8FC31022B02D07D
:104D1000032B23D062E0354B1B78002B1AD0334B8A
:104D20001B781A467B685A607B68032283F8FC2153
:104D30002E4B1B7819467868FFF718FB0346022BA9
:104D400004D13968786800F031F94CE0786800F0F7
:104D5000F9F948E0786800F0F5F944E0234B1B7856
:104D6000002B12D17B68022283F8FC211F4B1B7899
:104D70001A467B685A601D4B1B7819467868FFF706
:104D800015FB786800F0DEF92DE0184B1B781A4609
:104D90007B685B689A421DD07B685B68DBB2194612
:104DA0007868FFF703FB114B1B781A467B685A6043
:104DB0000E4B1B7819467868FFF7D8FA0346022B8A
:104DC00004D13968786800F0F1F80CE0786800F0F8
:104DD000B9F908E0786800F0B5F904E03968786856
:104DE00000F0E4F800BF0837BD4680BD5D09002033
:104DF00080B582B000AF786039603B68DB88012BFA
:104E000004D03968786800F0D1F81FE07B6893F827
:104E1000FC31022B02D0032B0BD012E07B68002266
:104E20009A607B68083301221946786800F02CF9F3
:104E30000CE07B68043301221946786800F024F9FD
:104E400004E03968786800F0B1F800BF00BF0837A7
:104E5000BD4680BD80B582B000AF786039607B68A8
:104E600093F8FC31023B012B15D87B680122DA60F4
:104E70007B68D3F80432002B05D07B68DB6843F0F5
:104E800002027B68DA607B680C330222194678687C
:104E900000F0FAF804E03968786800F087F800BF9D
:104EA00000BF0837BD4680BD80B582B000AF7860D6
:104EB00039603B685B88012B0DD17B680122C3F808
:104EC00004227B68D3F814329B6839687868984765
:104ED000786800F037F900BF0837BD4680BD00BFD5
:104EE00080B582B000AF786039607B6893F8FC31A0
:104EF000023B012B12D83B685B88012B13D17B68E6
:104F00000022C3F804227B68D3F814329B68396806
:104F100078689847786800F015F904E0396878688F
:104F200000F044F800E000BF00BF0837BD4680BD78
:104F300080B483B000AF786039603B681A787B68D2
:104F40001A703B685A787B685A703B6802331B784A
:104F50009AB23B6803331B789BB21B029BB213448B
:104F60009AB27B685A803B6804331B789AB23B68DC
:104F700005331B789BB21B029BB213449AB27B6829
:104F80009A803B6806331B789AB23B6807331B78DC
:104F90009BB21B029BB213449AB27B68DA8000BFBB
:104FA0000C37BD465DF8047B704700BF80B582B00A
:104FB00000AF786039608021786801F053F80021F3
:104FC000786801F04FF800BF0837BD4680BD00BFCC
:104FD00080B586B000AFF860B9607A600023FB75D9
:104FE000FB68002B33D0F86800F036F80346013335
:104FF0009BB25B009AB27B681A80FB7D5A1CFA75E3
:105000001A46BB6813447A681288D2B21A70FB7DC4
:105010005A1CFA751A46BB68134403221A7012E030
:10502000FB7D5A1CFA751A46BB681A44FB68591C6A
:10503000F9601B781370FB7D5A1CFA751A46BB6821
:10504000134400221A70FB681B78002BE8D100BFC4
:105050001837BD4680BD00BF80B485B000AF786012
:105060000023FB7305E0FB7B0133FB737B6801339B
:105070007B607B681B78002BF5D1FB7B18461437CF
:10508000BD465DF8047B704780B584B000AFF86022
:10509000B9601346FB80FB680222C3F8F421FA884A
:1050A000FB689A61FA88FB68DA61FB88BA680021BC
:1050B000F86801F0A5F8002318461037BD4680BDFA
:1050C00080B584B000AFF860B9601346FB80FB8800
:1050D000BA680021F86801F093F8002318461037E9
:1050E000BD4680BD80B584B000AFF860B96013469E
:1050F000FB80FB680322C3F8F421FA88FB68C3F83D
:105100000821FA88FB68C3F80C21FB88BA680021E3
:10511000F86801F0AFF8002318461037BD4680BD8F
:1051200080B584B000AFF860B9601346FB80FB889F
:10513000BA680021F86801F09DF80023184610377E
:10514000BD4680BD80B582B000AF78607B68042228
:10515000C3F8F421002300220021786801F050F800
:10516000002318460837BD4680BD00BF80B582B019
:1051700000AF78607B680522C3F8F4210023002289
:105180000021786801F076F8002318460837BD46FC
:1051900080BD00BF80B582B000AF78607B681846E4
:1051A000FBF716FB00BF0837BD4680BD80B500AFDA
:1051B00000224FF400610848FBF714FE0A20FFF7B5
:1051C000E9FF01224FF400610348FBF70BFE0120C9
:1051D000FFF7E0FF00BF80BD0004024080B582B051
:1051E00000AF0346FB8001F02BFA0E4B1B7883F0D7
:1051F0000103DAB20B4B1A700A4B1B78002B06D056
:1052000001224FF480510848FBF7ECFD05E0002235
:105210004FF480510448FBF7E5FD00BF0837BD4659
:1052200080BD00BF85090020000C024080B483B01F
:1052300000AF0346FB71002318460C37BD465DF8EE
:10524000047B7047B0B584B002AFFBF74FFA00F0B3
:105250002BF900F0A1F900F0EFFB00F03FFAFFF7A7
:10526000A5FF00BF01217E48FBF7A4FD0346002BEC
:10527000F8D01FF07BFB1F231F22002103201FF00B
:1052800059FB00230022002102201FF053FB0023C2
:105290000022002104201FF04DFB01201EF0C6FC5F
:1052A0000246704B1A606F4B1868002301936E4BD7
:1052B0000093012341F621026C491EF007FD0246CE
:1052C0006B4B1A60674B1868694B19680023002202
:1052D0001EF04CFD674B7F221A70624B1868644BBE
:1052E000196800230093634B00221EF0F7FD5D4B0D
:1052F00018685F4B1B68002219461FF041F8FBF746
:105300005BFA3860574B1868594B19680023002224
:105310001FF0B4F9584B1B68584A1360574B1A6872
:10532000574B1B689A4208D3544B1A68544B1B685E
:10533000D31A1A46534B1A6009E0504B1A68504B67
:105340001B68D31A03F500531A464E4B1A6000F03F
:1053500043FC0346012B00F081804A4B1B68002B65
:105360007CD0FBF729FA0246474B1A60464B1A6875
:105370003B68D31A1A464549454820F093FC02463B
:10538000444B1A603F4B1B68262BA8BF2623424A7A
:1053900013605AE000237B6037E03E4B1B681A46DF
:1053A0003B4BD018354B1968344B1B683B4A32F8DD
:1053B00023309BB21D46314B1B68384A9B00134477
:1053C0009B781C462D4B1B68344A9B001344DB78AA
:1053D000019300942B460A46314920F063FC0246B3
:1053E0002C4B1B6813442B4A1360244B1B6801335E
:1053F000224A1360214B1B68B3F5005F02D31F4B99
:1054000000221A607B6801337B60234B1B687A683B
:105410009A42C2DB1F4B1B6819461D4800F0B6FBC1
:105420001C4B00221A6000BF00F0D6FB0346012B84
:10543000FAD01C4B1B6801331A4A1360114B1A68CF
:10544000154B1B68D31A0F4A13600E4B1B68002BB9
:10545000A0DC0A4B1B680A4A13605BE700BF59E7F0
:10546000000002407C0900202D5200084864020818
:105470008009002084090020AC0900206C0900206C
:10548000680900206409002070090020A463020854
:10549000049600206009002074090020D4B4002084
:1054A000AC6302087809002080B594B000AF0023F7
:1054B000BB60354A344B1B6C43F080531364324B52
:1054C0001B6C03F08053BB60BB6800237B602F4ADA
:1054D0002E4B1B6843F4804313602C4B1B6803F472
:1054E00080437B607B6801233B624FF480337B62A7
:1054F0000223BB634FF48003FB6308233B644FF438
:10550000A8737B640223BB640723FB6407F12003B9
:105510001846FCF74BFD0346002B04D04FF4857171
:105520001B4800F037F90F23FB6002233B61002387
:105530007B614FF4A053BB614FF4A053FB6107F1B3
:105540000C0305211846FCF771FF0346002B04D01D
:105550004FF48C710E4800F01DF9FDF71FF902465B
:105560000C4BA3FB02239B091846FBF753FA0420BC
:10557000FBF75CFA002200214FF0FF30FBF720FA26
:1055800000BF5037BD4680BD00380240007000406B
:10559000C0630208D34D621080B58AB000AF00230B
:1055A0003B61494A484B1B6B43F080031363464BF6
:1055B0001B6B03F080033B613B690023FB60424AA5
:1055C000414B1B6B43F0010313633F4B1B6B03F019
:1055D0000103FB60FB680023BB603B4A3A4B1B6B3B
:1055E00043F002031363384B1B6B03F00203BB60F1
:1055F000BB6800237B60344A334B1B6B43F01003C2
:105600001363314B1B6B03F010037B607B6800233B
:105610003B602D4A2C4B1B6B43F0080313632A4B52
:105620001B6B03F008033B603B6801224FF40061F1
:105630002648FBF7D7FB00224FF480512448FBF7A4
:10564000D1FB01237B610023BB610023FB6107F1D8
:10565000140319461F48FBF713FA01237B611E4B05
:10566000BB610023FB6107F1140319461748FBF7E0
:1056700007FA4FF400637B610123BB610023FB61E8
:1056800002233B6207F1140319461048FBF7F8F9AF
:105690004FF480537B610123BB610023FB61022334
:1056A0003B6207F1140319460948FBF7E9F90022A8
:1056B00000210620FBF784F90620FBF79DF900BFC7
:1056C0002837BD4680BD00BF0038024000040240BC
:1056D000000C0240000002400000211080B588B09C
:1056E00000AF294B4FF020421A60274B274A5A60DF
:1056F000254B00229A60244B0022DA60224B0022C4
:105700001A61214B00225A611F4B00229A611E4BE5
:105710000022DA611C4B00221A621B4B00225A62E3
:10572000194B4FF480529A62174B0022DA62164BE3
:1057300000221A63144B00225A63134B00229A630F
:10574000114B00225A6400237B600023BB600623B8
:10575000FB6000233B6100237B610023BB610023CE
:10576000FB613B1D002219460748FDF723F803465D
:10577000002B04D04FF4C271054800F00BF800BFB5
:105780002037BD4680BD00BF04980020040100A062
:10579000C063020880B483B000AF78603960FEE770
:1057A000DFF834D0002103E00C4B5B584350043148
:1057B0000B480C4B42189A42F6D30B4A02E00023E6
:1057C00042F8043B094B9A42F9D300F0FFF8FAF78C
:1057D000EFFEFFF737FD70470000022090BB020884
:1057E000000000204009002040090020E43401208E
:1057F000FEE7000080B582B000AF00237B60254A41
:10580000244B5B6C43F480435364224B5B6C03F486
:1058100080437B607B6800233B601E4A1D4B1B6CF2
:1058200043F0805313641B4B1B6C03F080533B60AD
:105830003B680320FBF7B8F8002200216FF00B0053
:10584000FBF7BEF8002200216FF00A00FBF7B8F862
:10585000002200216FF00900FBF7B2F800220021BE
:105860006FF00400FBF7ACF8002200216FF003009A
:10587000FBF7A6F8002200216FF00100FBF7A0F86B
:10588000002200214FF0FF30FBF79AF800BF0837E5
:10589000BD4680BD0038024080B586B000AF1D4BCC
:1058A0001B68002B31D11B4B01221A6000233B6087
:1058B000194A194B9B6B43F001039363164B9B6B87
:1058C00003F001033B603B684FF4F0637B6002230D
:1058D000BB600023FB6003233B610C237B613B1D0A
:1058E00019460E48FBF7CCF84CF6B3037B60022355
:1058F000BB600023FB6003233B610C237B613B1DEA
:1059000019460748FBF7BCF800E000BF1837BD4652
:1059100080BD00BF8809002000380240001002400E
:10592000000C024080B582B000AF7860FFF7B4FF92
:1059300000BF0837BD4680BD80B400AF00BFBD4684
:105940005DF8047B704700BF80B400AFFEE700BF86
:1059500080B400AFFEE700BF80B400AFFEE700BF39
:1059600080B400AFFEE700BF80B400AF00BFBD460B
:105970005DF8047B704700BF80B400AF00BFBD4638
:105980005DF8047B704700BF80B400AF00BFBD4628
:105990005DF8047B704700BF80B500AFFAF7F8FEF2
:1059A000FBF760F800BF80BD80B500AF0120FBF7BA
:1059B00033FA00BF80BD00BF80B500AF0248FBF7DF
:1059C0006DFB00BF80BD00BF78AA002080B400AF8F
:1059D000164A164BD3F8883043F47003C2F8883067
:1059E000134A134B1B6843F001031360104B002252
:1059F0009A600F4A0E4B1B6823F0847323F48033A4
:105A000013600B4B0B4A5A60094A094B1B6823F47D
:105A100080231360064B0022DA60044B4FF00062D3
:105A20009A6000BFBD465DF8047B704700ED00E062
:105A3000003802401030002480B500AF0022084931
:105A40000848FEF735FC08490648FEF75DFC0749A3
:105A50000448FEF793FB0348FEF770FC00BF80BDCF
:105A600058050020549800204004002048050020DC
:105A700080B500AF002205490548FEF797FB0549B0
:105A80000348FEF7ADFB0023184680BD78A2002036
:105A900054980020789A002080B400AF0023184664
:105AA000BD465DF8047B704780B483B000AF034609
:105AB0003960FB711346BB80FB79232B4AD801A2C6
:105AC00052F823F0555B0008555B0008555B000851
:105AD000555B0008555B0008555B0008555B0008E6
